:020000040800F2
:100000000004002047010008D5040008D7040008B8
:10001000DB040008DF040008E3040008000000001F
:10002000000000000000000000000000E7040008DD
:10003000E904000800000000EB040008310D00088E
:1000400067010008670100086701000867010008F0
:10005000670100086701000867010008ED04000857
:1000600067010008670100086701000867010008D0
:1000700067010008670100086701000867010008C0
:1000800067010008670100086701000867010008B0
:100090001D0D0008670100086701000867010008DE
:1000A0006701000867010008670100086701000890
:1000B000AF0B0008F10B0008310C000867010008C5
:1000C0006701000867010008670100086701000870
:1000D000670100086B0C0008670100086701000851
:1000E0006701000867010008250D00086701000886
:1000F0006701000867010008670100086701000840
:10010000670100086701000867010008670100082F
:10011000670100086701000867010008670100081F
:10012000670100086701000867010008670100080F
:10013000DFF80CD006F052F90048004791030008A0
:1001400018470020704708488047084981F308880D
:1001500007480047FEE7FEE7FEE7FEE7FEE7FEE7AB
:10016000FEE7FEE7FEE7FEE745010008184700202E
:10017000310100081FB54FF4A06003F0BDF91C2049
:100180008DF80C0003208DF80D008DF80E00012075
:100190008DF80F0003A803F0B4F90121084603F01D
:1001A0008EFB4FF0804003F077FC4FF4FA70ADF80F
:1001B000040048F6A040ADF800000020ADF80600AD
:1001C000ADF8020069464FF0804003F0D0FC0121F9
:1001D000880704F02DFA01221146900703F068FF0A
:1001E0000121880703F049FF00BF022182A006F029
:1001F00045F982A006F042F900BF1FBD1FB54FF4BC
:10020000A06003F079F91E208DF80C0002208DF813
:100210000D008DF80E0001208DF80F0003A803F0EB
:1002200070F90121042003F04AFB7C4803F034FC00
:100230000A20ADF804004FF4E150ADF800000020B2
:10024000ADF80600ADF802006946744803F08FFC73
:1002500000BF022168A006F011F971A006F00EF9A6
:1002600000BF1FBD1FB54FF4A06003F045F9072084
:100270008DF80C0001208DF80D008DF80E008DF822
:100280000F0003A803F03DF90121052003F00AFB4C
:100290000220ADF8080003208DF80A0028208DF810
:1002A0000B0002A9664802F0C1FC0221644802F07A
:1002B0006AFD022003F0E7FB0121002002F0BAFDF5
:1002C0000220009000208DF804000C208DF805001D
:1002D00001208DF80600684603F05AFB00BF02219A
:1002E00045A006F0CBF857A006F0C8F800BF1FBD28
:1002F0001FB54FF4A06003F0FFF81D208DF80C002F
:1003000003208DF80D008DF80E0001208DF80F00F0
:1003100003A803F0F6F80121022003F0D0FA5148B7
:1003200003F0BAFB3220ADF804004820ADF800001D
:100330000020ADF80600ADF802006946494803F018
:1003400016FC00BF02212CA006F098F846A006F08B
:1003500095F800BF00BF022127A006F08FF84AA041
:1003600006F08CF800BF1FBD08B50121102003F076
:1003700099FA4FF40050ADF8000003208DF8020008
:1003800010208DF803006946474802F04FFC08BD75
:1003900005F011FD01F068FF00F01EFEFFF72EFFD3
:1003A00000F004FDFFF7E6FE01F0EBF8FFF7A0FF19
:1003B000FFF758FF01F054FCFFF7D6FF00BF022102
:1003C0000DA006F05BF839A006F058F800BF12E067
:1003D00001203D4908603D4801F029FF3B4801F0FC
:1003E00026FF00203A49C1F8B401384801F01FFF48
:1003F000364801F01CFFEBE725630000E5AE9AE408
:10040000BD8DE591A8E69C9FE9858DE7BDAE090904
:10041000E5AE8CE688900D0A000000000008004060
:10042000E591BDE4BBA4E6A8A1E5BC8FE590AFE5EE
:100430008AA80909E5AE8CE688900D0A0000000044
:1004400000080140E5A496E983A8E4B8ADE696ADBE
:10045000E9858DE7BDAE0909E5AE8CE688900D0A09
:100460000000000000040040E887AAE58AA8E987A8
:100470008DE58F91E9858DE7BDAE0909E5AE8CE686
:1004800088900D0A00000000E58F91E98081E79BCC
:1004900091E68EA7E9858DE7BDAE5C7409E5AE8C6B
:1004A000E688900D0A000000001001403D3D3D3DF2
:1004B0003D3D3D3D496E697420446F6E653D3D3D57
:1004C0003D3D3D3D0D0A0000B4012242FFFF0F00FB
:1004D00000002242704700BFFEE700BFFEE700BFFA
:1004E000FEE700BFFEE7704770477047FEB5012684
:1004F000022003F0C8FA52E302A801F0DEFB00BFBD
:100500000221FEA005F0BAFFFDA0029905F0B6FF9A
:1005100000BF029800F48020B0F5802F16D101F0C2
:10052000FCF804200190012301AA02210F2000F011
:10053000B4FC00BF0221F1A005F0A0FFF4A005F07B
:100540009DFF00BF00F0DDFF01F08AFB029800F480
:100550008060B0F5806F1CD100BF0221E7A005F0DC
:100560008DFFEEA005F08AFF00BFF048007802285A
:1005700003D0EE48007801280BD10423EC4A002177
:10058000152000F0D0FC0123EA4A0421152000F0D8
:10059000CAFC029800F44040B0F5004F14D1F0209E
:1005A0000190012301AA19460F2000F076FC01F00A
:1005B000B4F801F055FB00BF0221D0A005F05EFFAA
:1005C000DDA005F05BFF00BF029800F4C040B0F56D
:1005D000005F11D120200190012301AA19460F20AC
:1005E00000F05BFC00BF0221C4A005F047FFD6A0CD
:1005F000029905F043FF00BF029800F080008028B8
:1006000074D100BF0221BDA005F038FFD6A005F0CF
:1006100035FF00BF80200190012301AA00210F2097
:1006200000F03BFCD5480078012811D100BF022121
:10063000B2A005F023FFD2A005F020FF00BF0220EA
:10064000CE490870D5480168D54801F03FFBA6E2C5
:10065000CA480078022812D100BF0221A7A005F0E5
:100660000DFFD0A005F00AFF00BF0320C3490870AA
:100670000020087001F051F801F0F2FA8FE2AB4867
:100680000078012833D10220A849087000BF022158
:100690009AA005F0F3FECBA005F0F0FE00BF042306
:1006A000CF4A0021172000F03EFC0123CD4A04214F
:1006B000172000F038FC00BF022190A005F0DEFEFC
:1006C000C7480168C8A005F0D9FE00BF00BF0221DD
:1006D0008AA005F0D3FEC3480178C5A005F0CEFE80
:1006E00000BF01F01AF801F0BBFA58E20FE08F48A2
:1006F00000780428ABD100208C49087000BF02218B
:100700007EA005F0BBFEBCA005F0B8FE47E2029853
:1007100000F48040B0F5804F05D0029800F40050FE
:10072000B0F5005F73D100BF022174A005F0A6FEF2
:10073000B9A005F0A3FE00BF00F0EFFF602001901C
:10074000012301AA19460F2000F0A7FB6946B6480D
:1007500001F090FA00BF022168A005F08FFEB3A05F
:1007600005F08CFE00BFB0480078902825D1002409
:1007700018E0601CAC49085CB249095D884210D0A1
:1007800000240AE0601CA849095C854AA01C105C92
:10079000814201D0002602E0641C082CF2DB00BF7D
:1007A00002E0641C082CE4DB00BF012E9DD1BDF8E3
:1007B00000109D4800F028FEF1E19B480E3077497B
:1007C00008600838A049086000F1100500BF022148
:1007D0004AA005F053FE9448007800F0E0019BA089
:1007E00005F04CFE00BF002418E097480068005D4B
:1007F0009449095D884210D000240AE092480068BC
:10080000005D6749095D884202D0002603E0C2E12D
:10081000641C082CF2DB00BF02E0641C082CE4DB43
:1008200000BF012EC8D18048007800F0E000802889
:1008300062D100BF022131A005F020FE87A005F0A3
:100840001DFE00BF287898B94C48007880B95348FD
:100850000168534801F057FB01204849087000BF68
:10086000022126A005F00AFE80A005F007FE96E111
:100870002878012828D100BF022120A005F0FEFD24
:1008800084A005F0FBFD00BF44480068C07900F07B
:100890000F00401E894901EB80020423002115202E
:1008A00000F041FB3D480068C07900F00F00401E99
:1008B0008349421801230421152000F034FB00F085
:1008C0002CFF01F0CDF96AE12878022815D100BF8C
:1008D00002210AA005F0D2FD7AA005F0CFFD00BFED
:1008E000042012490870D5F801102C480068C0791E
:1008F00000F00F00401EF9E048E134E125630000FC
:100900007374617475733A20253038580D0A0000ED
:100910004C4445206572722E0D0A00004C4445205F
:10092000537563636573732E0D0A00000200002087
:100930004C00002050000020435243204661696C67
:1009400065642E0D0A000000576520676F742061F2
:10095000207765697264207374617475733A20300E
:1009600078253038580D0A005472616E736D6974C1
:1009700020646F6E652E0D0A00000000010000204B
:100980004C532041434B0909537563636573736688
:10099000756C6C792053656E740D0A000800002098
:1009A000360000204C5320444154410909537563DB
:1009B0006365737366756C6C792053656E740D0A8C
:1009C000000000004C5320526571090953756363A0
:1009D00065737366756C6C792053656E740D0A00CF
:1009E000440000204800002030782538780D0A00A7
:1009F00030782532780D0A004C5320524554555218
:100A00004E09095375636365737366756C6C792061
:100A100053656E740D0A0000726563656976652022
:100A2000646F6E652E0D0A00F00200207261775F20
:100A30007265616420636F6D706C657465642E0D02
:100A40000A00000084710008040000204865616409
:100A500065723A20253032580D0A000041204C536F
:100A6000204672616D652E0D0A0000000D0A3D3DA5
:100A70003D3D3D3D3D3D3D3D3D476F74204C532048
:100A80005265713D3D3D3D3D3D3D3D3D3D3D0D0A88
:100A9000000000000D0A3D3D3D3D3D3D3D3D3D3DDD
:100AA0003D476F74204C532041434B3D3D3D3D3D00
:100AB0003D3D3D3D3D3D0D0A00000000640200202B
:100AC0005B0000200D0A3D3D3D3D3D3D3D3D3D3D32
:100AD0003D476F74204C5320444154413D3D3D3DC2
:100AE0003D3D3D3D3D3D3D0D0A000000924A42F82E
:100AF000201000BF0221AFF2FC1005F0BFFC8F48B0
:100B00000068C07900F00F00401E8B4A52F8201098
:100B10008BA005F0B3FC00BF88490968C97901F0D2
:100B20000F01481E00F0A8FE00F0F7FD01F098F854
:100B3000874801680068401C854A1060032091FBCB
:100B4000F0F200FB121000BB002402E001F04FFBAA
:100B5000641C642CFADB00F049FB00F028FF002045
:100B60007C4908701BE02878032803D100207A49CB
:100B7000087014E02878042803D1284600F0A9FF63
:100B80000DE000F0CAFD01F06BF808E000F0C5FDD3
:100B900001F066F803E000F0C0FD01F061F8022109
:100BA0006E4802F0D4F800283FF4A6ACFEBD10B5A4
:100BB00000BF0221AFF2BC2005F060FC68A005F088
:100BC0005DFC00BF0121880703F035FD78B10121EC
:100BD000880703F041FD00BF0221AFF2E02005F0DD
:100BE0004DFC62A005F04AFC00BF00F0E5FD10BD21
:100BF00010B50121664803F01EFDC0B1002201219D
:100C0000634803F055FA0021614803F0E1FC00213C
:100C10005F4803F032FA01215D4803F009FD01222B
:100C200011465B4803F044FA01205A49087010BD90
:100C300010B50121584803F0FEFCA8B10121564827
:100C400003F00AFD02205549087000220121524894
:100C500003F02EFA0021504803F0BAFC00214E4860
:100C600003F00BFA00F026FA10BD10B540F2255142
:100C70004B4802F00BFC00284FD04848007818BBC6
:100C80000120464908700121434803F0D1FC0122AC
:100C90001146414803F00CFA01213F4803F0EDF9F9
:100CA0003F48001D0088C1B23E4802780078401CD1
:100CB0003C4B18703C4881541846007840282CD191
:100CC00000201946087028E034480078012824D113
:100CD00000220121304803F0EBF900212E4803F0F7
:100CE00077FC01212C4803F0A3FC012211462A487D
:100CF00003F0DEF92A48001D0088C2B229480178B5
:100D00000078401C274B187027484254184600783A
:100D1000402802D100201946087010BD10B501F01E
:100D2000FFFB10BD10B54FF4802002F0ACFE10BDEB
:100D300010B501F081FA10BD7003002008000020FA
:100D4000646174613A20253038580D0A00000000B3
:100D50000C000020020000200100002000080140DB
:100D600054494D204952510A0000000050657266F6
:100D70006F726D696E67204C6F636174696F6E5F2F
:100D8000706F6C6C696E6728292E2E2E0A00000089
:100D90000004004000000020000800401100002076
:100DA00000380140100000201802002000B587B074
:100DB000012141F2050002F075FD2020ADF804008C
:100DC00003208DF8060018208DF8070001A9794846
:100DD00001F02CFF4020ADF8040001A9754801F096
:100DE00025FF8020ADF8040001A9724801F01EFF24
:100DF0000820ADF8040010208DF8070001A96D4807
:100E000001F014FF0020ADF808004FF48270ADF837
:100E10000A000020ADF80C00ADF80E00ADF810008F
:100E20004FF40070ADF812000820ADF81400002057
:100E3000ADF816000720ADF8180002A95E4802F0D0
:100E40004FF801215C4802F0E8F80821594801F008
:100E500098FF00BF022159A005F010FB58A005F033
:100E60000DFB00BF07B000BD10B5044600BF022156
:100E7000514802F056F90028F9D021784E4802F086
:100E8000FDF800BF01214C4802F04BF90028F9D0D1
:100E9000494802F0F5F8C0B210BD2DE9F843054607
:100EA0000C46174698460821424801F06CFF34B9B9
:100EB00045F0800000906846FFF7D6FF23E07F2CC6
:100EC0000BDC45F0C00000906846FFF7CDFFE0B2B4
:100ED00000906846FFF7C8FF15E045F0C00000909D
:100EE0006846FFF7C1FFE0B200909DF8000040F0B7
:100EF000800000906846FFF7B7FFC4F3C71000906A
:100F00006846FFF7B1FF002605E038467F1CFFF773
:100F1000ABFF701C86B24645F7DB0821254801F07F
:100F200030FFBDE8F883FFB581B00C4615461F467B
:100F30000821204801F027FF1CB901A8FFF794FF02
:100F400027E07F2C0DDC9DF8040040F0400000906D
:100F50006846FFF789FFE0B200906846FFF784FF1C
:100F600017E09DF8040040F0400000906846FFF74D
:100F70007BFFE0B200909DF8000040F08000009000
:100F80006846FFF771FFC4F3C71000906846FFF78B
:100F90006BFF002606E001A8FFF766FF05F8010BCE
:100FA000701C86B2BE42F6DB0821024801F0E9FE61
:100FB00005B0F0BD0008014000300140256300008D
:100FC000535049E5889DE5A78BE58C965C7409E54F
:100FD000AE8CE688900D0A0000B587B04FF4A06093
:100FE00002F08AFA25208DF8040000208DF8050013
:100FF0008DF8060001208DF8070001A802F081FAA3
:10100000012144F2050002F04DFC4FF40070ADF8F0
:10101000180018208DF81B0003208DF81A0006A96F
:101020008A4801F003FE4FF48060ADF818000420F8
:101030008DF81B0006A9854801F0F8FD4FF4E1305A
:1010400002900020ADF80C00ADF80E00ADF81000D5
:10105000ADF814000C20ADF8120002A97C4802F093
:10106000DCF8012240F22551794802F050F9402184
:10107000774802F008FA0121754802F03CF900BFF8
:10108000022174A005F0FAF973A005F0F7F900BF8A
:1010900007B000BD70B504460D46E1B26C4802F0E1
:1010A00092F900BF40216A4802F0E4F90128F9D121
:1010B000204670BD10B500246E480078022877D114
:1010C0006D480078800906D001280ED0022816D07D
:1010D000032809D143E000BF02215EA005F0CEF94C
:1010E00066A005F0CBF900BF79E000BF022159A04E
:1010F00005F0C4F965A005F0C1F900BF6FE000BFBD
:10110000022154A005F0BAF964A005F0B7F900BFB8
:1011100059480078C0F3011010B101281DD10DE02D
:1011200000BF02214BA005F0A9F960A005F0A6F9C7
:1011300000BF0121880702F0A0FF0EE000BF0221DE
:1011400044A005F09BF95BA005F098F900BF0021D1
:101150004FF0804002F091FF00BF00BF3FE000BFB2
:1011600002213CA005F08AF954A005F087F900BFE0
:1011700041480078C0F3011030B101280ED0022898
:1011800017D0032829D11EE000BF022131A005F0AD
:1011900075F94EA005F072F900BF1EE000BF0221F4
:1011A0002CA005F06BF94CA005F068F900BF14E025
:1011B0001BE000BF022127A005F060F94AA005F05E
:1011C0005DF900BF09E000BF022122A005F056F939
:1011D00049A005F053F900BF00BF00BF00BF00BF2A
:1011E0000020244908704849087010BD30B585B00A
:1011F00046A005F043F9524841690069CDE9020172
:101200004F48C1688068CDE900014D48D0E90043EE
:1012100022464CA005F032F951480068642190FB49
:10122000F1F201FB120038B904A800F0E4FE9DF8C9
:1012300010104CA005F022F949480068401C4849AC
:10124000086032A005F01AF905B030BD0008014071
:1012500000380140256300005553415254E5889DF4
:10126000E5A78BE58C965C7409E5AE8CE688900D5D
:101270000A0000001100002018020020726573654A
:101280007276656420747970650A00006D65737309
:1012900061676520747970650A0000006C6F636196
:1012A00074696F6E20696E666F200A004F70656EFC
:1012B0000A000000436C6F73650A0000636F6D6D78
:1012C000616E6420747970650A0000005265626F77
:1012D0006F7420636D640A007772697465207265AB
:1012E0006720636D640A000072656164207265673F
:1012F00020636D640A000000736574206C6F6720C2
:10130000636D640A00000000100000203D3D3D3D7B
:101310003D3D3D3D3D3D3D3D3D3D3D3D3D3D3D3DFD
:101320003D3D3D3D3D3D3D3D3D3D3D3D3D3D3D3DED
:101330003D3D3D3D3D3D3D3D3D3D3D3D3D0D0A007D
:101340008003002044697374733A20252E326C6642
:1013500020252E326C6620252E326C660D0A000088
:101360001400002054656D703A202025640D0A0099
:1013700010B50446FA480068B0F5807F00D110BD72
:10138000F8490968F84A02EB81104022214604F02E
:101390003DFDF4480068401CF2490860F0480068D0
:1013A000401CEF490860EF480068B0F5807F02D12B
:1013B0000020EC49086000BFE1E710B50446E848AA
:1013C000006820B94021204604F039FD10BDE548F1
:1013D0000068E54A02EB80114022204604F016FD29
:1013E000E2480068401CE1490860DD480068401E92
:1013F000DB490860DD480068B0F5807F02D100203D
:10140000DA49086000BFE1E770B505460C463F2C9D
:101410000DDA0020D64908704C7022462946D4487F
:10142000801C04F0F3FCD248FFF7A2FF54E07D2CAF
:1014300020DA0120CE4908704C703E222946CC4863
:10144000801C04F0E3FCCA48FFF792FF4021C84823
:1014500004F0F5FC0220C64908704C70A4F13E026D
:1014600005F13E01C248801C04F0D0FCC048FFF7E3
:101470007FFF31E00120BE4908704C703E222946B2
:10148000BB48801C04F0C2FCB948FFF771FF402143
:10149000B74804F0D4FC0220B54908704C703E22D5
:1014A00005F13E01B248801C04F0B0FCB048FFF7E3
:1014B0005FFF4021AE4804F0C2FC0320AC49087035
:1014C0004C70A4F17C0205F17C01A948801C04F059
:1014D0009DFCA748FFF74CFFF020A6490870487014
:1014E000022004F0D1F9064602223146A14803F059
:1014F000B5FF0221084604F0E3F9022004F088F861
:1015000070BD38B50020009001236A4606213620C0
:10151000FFF7C3FC4FF40040009002236A46062107
:101520002D20FFF7BAFC002402E000F060FE641CEE
:10153000642CFADB0220009001236A460621362043
:10154000FFF7ABFC0820009001236A4619462C20C7
:10155000FFF7A3FC38BD10B504460823224600213E
:101560000120FFF79AFCA07883490870E078487062
:10157000207988706079C870A0790871E079487125
:1015800010BD38B5002402E000F031FE641C0A2CC6
:10159000FADB7A48009004236A4600211F20FFF7F7
:1015A0007CFC48F67000009002236A460421232048
:1015B000FFF773FC7248009004236A460C21232035
:1015C000FFF76BFC6F48009004236A460821272030
:1015D000FFF763FC6C20009001236A4640F6060189
:1015E0002E20FFF75AFC41F20760009002236A4662
:1015F00041F606012E20FFF750FC634800900423BB
:101600006A4600211E20FFF748FC60480090042332
:101610006A460C212820FFF740FCD82000900123C7
:101620006A460B212820FFF738FC44F28E200090F8
:1016300002236A4642F604012E20FFF72EFCC0204A
:10164000009001236A460B212A20FFF726FCA620E2
:10165000009001236A460B212B20FFF71EFCFFF7A9
:1016600050FFFF204A49087048708870C8700871A0
:1016700048718871F020C8710846FFF76CFF454833
:10168000009004236A4600211846FFF706FC4248F2
:10169000009002236A4600212620FFF7FEFB01206E
:1016A000009001236A4628213620FFF7F6FB4FF40D
:1016B0000250009002236A4600210E20FFF7EDFB46
:1016C0000320009001236A4603211A20FFF7E5FB5F
:1016D000002402E000F08BFD641C0A2CFADBFFF70B
:1016E00010FFFFF70EFFFFF70CFFFFF70AFFFFF7F2
:1016F00008FF00BF022129A004F0C0FE28A004F0CA
:10170000BDFE00BF38BD08B58220009001236A46A7
:1017100000210D20FFF7C1FB08BD08B54020009057
:1017200001236A4600210D20FFF7B7FB08BD38B53D
:1017300005460C46FFF7F1FF23882A4600210920C1
:10174000FFF7ABFB2078801CC0B2009001236A46F3
:1017500000210820FFF7A1FBFFF7D5FF38BD0000EF
:101760002400002028000020980300202C000020E6
:1017700098430020340000203E0000205500042142
:1017800007A902252D001A314828080EE03F1E0047
:1017900036000020FC1100204015100025630000D9
:1017A0004457314B205365747570090946696E6959
:1017B00073686564210D0A0008B58220FE4908702F
:1017C00037204870FD4800788870FC480078401C3D
:1017D000FA490870FF20F8490871C870F848007885
:1017E0008871F7484078C871F54880780872F448E5
:1017F000C0784872F24800798872F1484079C8721E
:10180000EF4880790873EF480068032190FBF1F2FC
:1018100001FB1200401CC0B240F0F000E6494873E2
:10182000E8480068401CE7490860E7480078E2495A
:101830008873E5484078C873E34880780874E248C4
:10184000C0784874E04800798874DF484079C874EB
:10185000DD4880790875DC48C079487500208875B6
:10186000FF20C875172000906946D348FFF75FFF37
:101870000120D649087008BD2DE9F04786B08246A0
:10188000D34810F80A00D349097888420FD1D249C9
:1018900051F82A10D14A1268881A04F074FC0646DE
:1018A0000022CF4B04F07DFB04460D4638E0C848CB
:1018B00010F80A00C7490978884217DDC44911F8B1
:1018C0000A10C44A1278891A4942C34A52F82A2097
:1018D0001144C24A1268881A04F055FC06460022D8
:1018E000BF4B04F05EFB04460D4619E0B949097888
:1018F000C1F1FF01B64A12F80A201144491C4942BD
:10190000B54A52F82A201144B44A1268881A04F0E1
:101910003AFC06460022B24B04F043FB04460D4657
:10192000B04951F82A0004F02EFC80460022AC4B4E
:1019300004F037FB064622462B4604F02FFB0446F4
:101940000D46A948007804F01EFC8046A74AA84B23
:1019500004F027FB06460022A14B04F01FFB2246A1
:101960002B46CDE90401A348A34904F01AFB4FF02C
:101970002242A24BCDE9000104F085FB064600227D
:101980004FF0804304F07FFB80464FF094429C4B25
:1019900004F007FBCDE90201DDE9042304F001FBBB
:1019A000984A02EBCA0203C206B0BDE8F08708B548
:1019B00082208149087037204870804800788870FC
:1019C000FF200871C8707E48007888717C48407894
:1019D000C8717B48807808727948C0784872784826
:1019E0000079887276484079C872754880790873A2
:1019F000F420487374480078887373484078C8733B
:101A00007148807808747048C07848746E480079CE
:101A100088746D484079C8746B48807908756A4845
:101A2000C07948750420887577480068002141EA2C
:101A300010606149C87574480068002141EA10408F
:101A40005D49087670480088002141EA10205A4913
:101A500048766D48007888766B484068002141EAF6
:101A600010605549C87668484068002141EA104036
:101A70005149087764488088002141EA10204E4986
:101A800048776148007988775F488068002141EA9B
:101A900010604949C8775C488068002141EA1040DD
:101AA000454981F8200058480089002141EA10206A
:101AB000414981F821005448007A81F82200FF2032
:101AC00081F823002320009069463B48FFF72FFE52
:101AD00008BD41780906827801EB0241C27801EB2A
:101AE000022102791144484A11604179090682793C
:101AF00001EB0241C27901EB0221027A1144424A10
:101B00005160417A0906827A01EB0241C27A01EB07
:101B10000221027B11443C4A916070472DE9F04755
:101B20003A48008800113949088039480088801CEB
:101B300038490988484038490988891C484080F05C
:101B400002003249098881F0020190FBF1FA504607
:101B500004F008FB804605F05DF9064600222F4B95
:101B600004F01FFA04462E4A2E4B04F014FA2E4AB3
:101B700003C22E48008800EB400101EB001023490E
:101B8000098881F0020190FBF1FA504604F0EAFA6C
:101B9000804605F03FF906460022204B04F001FA8A
:101BA00004461F4A1F4B04F0F6F9214A03C20020E5
:101BB000204905F02FF93FE07002002019000020B5
:101BC0008471000830000020360000200200002050
:101BD0005B00002048000020640200204400002038
:101BE0000000F03F70030020200000207B14AE476F
:101BF000E17A843FCDCCCCCCCC4C2F40941A6D42B2
:101C000078DEB14180030020AC0000206E0000208F
:101C100068000020660000206A00002000002440C8
:101C2000AE47E17A14EE5C40700000206C000020AA
:101C3000780000200000D03F06460022FE4B04F052
:101C4000B0F904460D46FD48FD490CC803C904F02F
:101C5000A2F9804622462B4604F0A2FABDE8F0879E
:101C600008B50120009001236A4619460D20FFF7B0
:101C700014F908BD38B505460C46FFF74EFD0123A3
:101C80006A4600211020FFF74EF99DF80000801EE3
:101C9000208000BF0221AFF2FC4004F0EFFB21885E
:101CA000E8A004F0EBFB00BF23882A4600211120A6
:101CB000FFF739F9FFF7D4FF38BD10B50446042308
:101CC000224600210F20FFF72EF910BD38B504463B
:101CD0000D46FFF722FD0423DC4A00211720FFF701
:101CE00022F90423DA4A00211520FFF71CF9012309
:101CF000D84A04211720FFF716F90123D64A0421F8
:101D00001520FFF710F900BF0221AFF2705004F068
:101D1000B5FBD2A004F0B2FB00BF00BF0221AFF2BE
:101D2000845004F0ABFBCA480168D6A004F0A6FBBF
:101D300000BF00BF0221AFF29C5004F09FFBC648D9
:101D40000178D4A004F09AFB00BF00BF0221AFF2DB
:101D5000B45004F093FBBD480168D2A004F08EFBA0
:101D600000BF00BF0221AFF2CC5004F087FBB9489E
:101D70000178D0A004F082FB00BFB6480078B649D5
:101D80000978884207D1B1480068B1490968401A0A
:101D9000CC49086025E0B0480078AE49097888420F
:101DA0000EDAAC480078AC490978401A4042A7499D
:101DB00009680844A6490968401AC249086010E049
:101DC000A5480078C0F1FF00A24909780844401CEA
:101DD00040429E49096808449D490968401AB9492A
:101DE000086000BF0221AFF24C6004F047FBB54829
:101DF0000168B5A004F042FB00BF8220B64908701C
:101E000037204870B54800788870B4480078401C86
:101E1000B2490870FF20B0490871C87028788871ED
:101E20006878C871A8780872E8784872287988724A
:101E30006879C872A8790873E8794873207888733C
:101E40006078C873A0780874E07848742079887442
:101E50006079C874A0790875E079487502208875A2
:101E600098480078C87597480068000A9549086046
:101E7000084600789849087692480068000A914917
:101E8000086008460078944948768E480068000A41
:101E90008C490860084600788F4988760120C8760A
:101EA0001B20009069468C48FFF741FC38BDF0B517
:101EB0000446DDE905561820277817F0010F01D0F8
:101EC000871EB8B200271FB1A0F10807B8B203E01F
:101ED00000270FB1871FB8B200271FB1A0F1080774
:101EE000B8B203E000270FB1871FB8B2A0F108070E
:101EF00027441760A0F1100727441F6027182F60A0
:101F00000F1A3780F0BD38B504460D46822072495D
:101F10000870372048707148007888706F480078E2
:101F2000401C6E490870FF206B490871C870287802
:101F300088716878C871A8780872E878487228793A
:101F400088726879C872A8790873E879487320782C
:101F500088736078C873A0780874E0784874207932
:101F600088746079C874A0790875E0794875012093
:101F70008875C8751720009069465748FFF7D7FB4A
:101F800038BD38B504460D468020009001236A46CE
:101F900011212820FEF781FF0A20009001236A46C4
:101FA00012212820FEF779FF0F20009001236A46B6
:101FB00012212820FEF771FF0120009001236A46BC
:101FC00000212A20FEF769FF00F011F9002000909F
:101FD00001236A4600212A20FEF75FFF01232246E3
:101FE00003212A20FEF79FFF01232A4604212A20ED
:101FF000FEF799FF38BD38B50446802000900123D4
:102000006A4611212820FEF748FF0A20009001238C
:102010006A4612212820FEF740FF0F20009001237E
:102020006A4612212820FEF738FF01200090012384
:102030006A4600212A2053E0000024407800002056
:102040007000002025640D0A0000000044000020FC
:102050004C00002048000020500000203D3D3D3D48
:102060003D3D3D3D3D3D3D526573706F6E73652056
:10207000444154413D3D3D3D3D3D3D3D3D3D3D0D9A
:102080000A00000052785F7374705F4C2025387826
:102090000D0A000052785F7374705F482025327813
:1020A0000D0A000054785F7374705F4C20253878F7
:1020B0000D0A000054785F7374705F4820253278F1
:1020C0000D0A0000600000207533325F64696666A7
:1020D00020253038780D0A007002002019000020F9
:1020E000FEF7DBFE00F083F80020009001236A4633
:1020F00000212A20FEF7D1FE0123224604212A20B6
:10210000FEF711FF38BD38B504460D46802000901B
:1021100001236A4611212820FEF7BFFE0A20009005
:1021200001236A4612212820FEF7B7FE0F200090F7
:1021300001236A4612212820FEF7AFFE01200090FD
:1021400001236A4600212A20FEF7A7FE00F04FF87F
:102150000020009001236A4600212A20FEF79DFE00
:1021600038BD000030B539480068394AB0FBF2F19B
:10217000B1F1807F01D301201DE021F07F40401E9E
:102180004FF0E022506150170F22002807DA1307A2
:102190001D0E304B00F00F04241F1D5503E01307E4
:1021A0001C0E2D4B1C5400BF00204FF0E02290610C
:1021B00007201061002008B100BFFEE74FF0E020CB
:1021C000006920F001004FF0E021086130BD234993
:1021D00008604FF0E021096941F001014FF0E02271
:1021E000116100BF1D4909680029FBD1704710B576
:1021F00000201B490870002201211A4801F058FFF5
:102200000021184802F0E4F90121164802F010FA02
:1022100001221146134801F04BFF0121114801F042
:102220002CFF00BF0E4800780028FBD110BD00E055
:10223000401E0028FCD170470848006820B10748BC
:102240000068401E0549086070470000FC710008E6
:1022500040420F0018ED00E000E400E080000020A4
:10226000000000200004004010B54FF4802001F071
:102270000AFC4FF48020434908600820487101207F
:102280008871084601F084FB10BD10B5002001F0F4
:102290006DFA0121C80501F012FB10BD03203A4977
:1022A0000860704710B5394CA07A18B1052036493E
:1022B000086002E001203449086003F07CFD10BD95
:1022C00008B54FF4A06001F017F914208DF8000054
:1022D00002208DF8010000208DF8020001208DF809
:1022E0000300684601F00DF92A208DF80000002057
:1022F0008DF80100684601F004F908BD10B50446E8
:102300002CB14FF48041224800F03DFD04E04FF431
:1023100080411F4800F035FD10BD30B50B4600214F
:1023200000BF16E00A24B4EB107F05D9302404EB7B
:10233000107403F8114005E0412404EB10740A3CCA
:1023400003F81140000100254C00641C1D554C1C75
:10235000E1B29142E6DB30BD70B50E480468001D65
:102360000568001D0668344454B108220A49204615
:10237000FFF7D3FF0422084910312846FFF7CDFFAD
:1023800070BD000084000020D0010020F84400202F
:10239000000C0140E8F7FF1F8E00002010B530212F
:1023A000012003F0D4F810BD10B55849032003F004
:1023B00076FC56480078102809D155485349891CA5
:1023C0000A68026049684160FFF7C5F892E04F482B
:1023D00040783F2810DA90204E4908704B484278E8
:1023E000811C4C48401C03F011FD48484078411CBA
:1023F0004848FFF79CF97DE0444840787D2833DA6F
:102400004548006880B94148007868B901204249D0
:10241000086090203F4908703E223C49891C3D4895
:10242000401C03F0F3FC65E03B480068012817D12D
:1024300036480078012813D1002037490860334816
:102440004078A0F13E023149891C32483F3003F008
:10245000DDFC2E484078411C2E48FFF768F949E022
:1024600000202D49086045E02B48006880B92748C6
:10247000007868B901202849086090202549087033
:102480003E222249891C2348401C03F0BFFC31E056
:102490002148006801280ED11C48007801280AD183
:1024A00002201D4908603E221849891C19483F3006
:1024B00003F0ACFC1EE018480068022817D113484E
:1024C0000078022813D10020134908600F48407893
:1024D000A0F17C020D49891C0E483F3003F096FCA8
:1024E0000A484078411C0B48FFF721F902E0002020
:1024F000094908604FF44051032003F044F810BD2F
:1025000001200649087070477047000018440020F9
:102510003600002058440020F0000020A8000020D1
:1025200010B588B0002465480068654908800846F1
:10253000008800F4007063490988084208D04FF60B
:10254000FF505E49086060480078401C5E49087092
:102550005B48008800F400405A490988084201D0CD
:1025600002F0FAFD5648008800F480605549098859
:10257000084206D04FF6FF3050490860534948687A
:1025800080474F48008800F400504E4909880842AF
:1025900003D04DF6FF70494908604948008800F4AF
:1025A000805048490988084206D04EF6FF704349DA
:1025B0000860002000F063FA4148008800F40060E1
:1025C0004049098808420CD04148007810B100F019
:1025D000D2F902E0022000F052FA4FF2FF703749C0
:1025E00008603748008800F480703649098808423E
:1025F00061D04FF6FF6031490860081D006810F493
:10260000004F52D033480068401C324908600846E9
:10261000006803284CD92948001F006810F0080FF3
:1026200046D12648001F006880B22B49086000246C
:1026300007E02248443850F8240080B24DF82400C6
:10264000641C082CF5D32448006840F0010022499E
:1026500008600846006880B21849091F08601E48D3
:10266000006820F001001C4908600846006880B23C
:102670001249091F086000BF1048006810F4806FFD
:10268000FAD04FF6FF300D490860002407E05DF8EE
:10269000240080B20949443941F82400641C082C04
:1026A000F5D300200B49086002E0002009490860CA
:1026B000072000F0E4F908B010BD0000445C0040C1
:1026C0003801002006020020F40000204C01002008
:1026D000D4010020F8000020FC00002010B5FFF716
:1026E0003BFE002085490968887200F01BF903F061
:1026F000B1FA00208249086010BD10B500207F4962
:10270000096888727D490968C8727E48C0797B492A
:1027100009684872002079490968C87202F0EAFE27
:102720004FF40071002002F0FDFE1021002002F0A5
:102730000EFF1821002003F099F85821002003F023
:1027400088F8002002F0AEFF6F4890F82C100020AF
:1027500003F0D8F8002002F070FF4FF4C0610220AF
:1027600002F0E0FE4FF48C71022003F072F80221B7
:10277000084603F0A5F82021022002F0E8FE00211F
:10278000012002F0CFFE4021012003F099F89821AA
:10279000012003F05EF84FF40051012002F0F3FE37
:1027A0003021012002F0D3FE0021032002F0BAFE06
:1027B0004021032003F0A6F8D821032003F056F8A7
:1027C0002021032002F0C3FE4FF44051032002F009
:1027D000DAFE002002F035FC01204949086010BDF6
:1027E00010B54A4CA07A40B1052045490860012047
:1027F00003F001F8012002F0FEFF10BD0420404963
:102800000860704770477047014629B908203B4A65
:1028100012681082002070473D48FCE7014629B944
:102820000820364A12681082002070473848FCE7BA
:1028300070B504460025212C09D130480068007885
:1028400000F07F00212810D1AFF22F050DE0202CE1
:102850000BD12A480068007800F07F00212801D1C0
:10286000AFF25B0520202B4908700DB9022070BD26
:1028700022480068856100212048006841820020CC
:10288000A8470020F3E701461C480068007800F0E4
:102890007F00212807D1022901D100207047222979
:1028A00001D10020FAE70220F8E710B504461A49E2
:1028B000204602F0B5F810BD10B504461749204671
:1028C00002F0AEF810BD70B505460C480068C4783B
:1028D000042C01DD002070BD114800EBC401284626
:1028E00002F09EF8F7E70246002901DD022070475A
:1028F000012A01DD0220FAE70020F8E7FC010020B0
:10290000D00100209E7100084C010020F8440020F6
:10291000400100203C010020A0010020A80100206F
:10292000B001002010B50120FFF7E8FC0124844825
:1029300004600020834908800846008880490860B8
:102940000020091D08604FF4E0507E4908800846C9
:1029500000887B490860002010BD10B5012078492F
:1029600008600020091D0860FFF7C8FC03207449B7
:102970000860002010BD18B500210022002300933C
:102980006F4B1B6898B200BF08E06D4B403B53F89B
:1029900021309BB26C4C44F82130491C0829F4D3F7
:1029A00040F48060664B186040F00100186020F031
:1029B0000100186000BF624B1B1D1B6813F4806F81
:1029C000F9D04FF6FF335E4C241D2360002108E050
:1029D0005D4B53F821309BB2594C403C44F82130B8
:1029E000491C0829F4D340F00800554B18601B68B7
:1029F00098B240F00400524B1860544B1B6800938F
:102A0000524B1A6822F0030242F001021A60504B46
:102A10001B6843F004034E4C2360494B1B1D1B688D
:102A200013F4805F06D130BF23461B6823F00403F4
:102A3000236014E04EF6FF73414C241D2360231FD6
:102A40001B6898B220F00800231F18603F4C009BC1
:102A500023603F4B1B6823F004033D4C236018BDEB
:102A600010B53748006884B224F004043448046088
:102A7000FFF718FC4FF43F403149086010BD70B5B6
:102A80000546072D01D033480570324800780828E4
:102A90004ED2DFE800F004111A202B384E4F2E489A
:102AA000006828B9FFF7DCFF06202A49087002E019
:102AB00005202849087041E0FFF7D2FF042025498E
:102AC000087001202449086038E00220214948703C
:102AD0000320087032E01F484078401E1D494870AE
:102AE0000846407808B90420087027E014480068B8
:102AF00084B244F01004124804600520154908709F
:102B00000A2048701AE013484078401E1149487066
:102B10000846407858B90A48006884B224F0100486
:102B2000074804600620087000200B49086005E093
:102B300000BF00BF06200749087000BF00BF70BD7E
:102B4000405C004006020020D84400200070004095
:102B500010ED00E0DC010020D801002010B5044693
:102B6000C549601A8C422FD009DCC448201810D007
:102B7000B0F5806F16D0B0F5006F4AD11BE0B0F50C
:102B8000806F2AD0B0F5006F30D0B0F5406F40D1E3
:102B900035E00121042000F09FFE0021042000F018
:102BA0009BFE37E00121082000F096FE002108205E
:102BB00000F092FE2EE00121102000F08DFE002199
:102BC000102000F089FE25E00121202000F084FE85
:102BD0000021202000F080FE1CE00121402000F0B8
:102BE0007BFE0021402000F077FE13E001218020D1
:102BF00000F072FE0021802000F06EFE0AE001214C
:102C0000080200F069FE00214FF4807000F064FEBD
:102C100000E000BF00BF10BD10B50121084600F064
:102C20005BFE0021012000F057FE10BD2DE9F041B0
:102C3000024600250026002000230024002791F8EA
:102C400003C00CF00F0591F803C01CF0100F03D067
:102C500091F802C04CEA050591F800C0BCF1000FE4
:102C600031D0146800202BE04FF0010C0CFA00F377
:102C7000B1F800C00CEA03069E4220D183004FF059
:102C80000F0C0CFA03F7BC4305FA03FC4CEA0404EE
:102C900091F803C0BCF1280F06D14FF0010C0CFADB
:102CA00000FCC2F814C00AE091F803C0BCF1480F60
:102CB00005D14FF0010C0CFA00FCC2F810C0401C0A
:102CC0000828D1D31460B1F800C0BCF1FF0F34DD87
:102CD000546800202EE000F1080C4FF0010808FABB
:102CE0000CF3B1F800C00CEA03069E4221D1830028
:102CF0004FF00F0C0CFA03F7BC4305FA03FC4CEA47
:102D0000040491F803C0BCF1280F05D100F1080CB0
:102D100008FA0CF8C2F8148091F803C0BCF1480F0F
:102D200007D100F1080C4FF0010808FA0CF8C2F8BE
:102D30001080401C0828CED35460BDE8F0814FF6C7
:102D4000FF710180022181700421C1707047024629
:102D5000002093680B4201D0012000E00020704762
:102D60000146886880B2704702460020D3680B4253
:102D700001D0012000E0002070470146C86880B201
:102D8000704701617047416170470AB1016100E01D
:102D900041617047C16070474FF480320A438261DD
:102DA0008161826182698269704702460020344BEA
:102DB00018684FF68073184040EA02100843304B01
:102DC000186070472F49C8617047F0B50A46002364
:102DD0000024002100252A4E7168C0F3034583B208
:102DE00000F44016B6F5401F08D121F07061244E62
:102DF000766826F07066224F7E6012E000F480163E
:102E0000B6F5801F06D1032606FA05F4A14341F06A
:102E1000706106E0460D360103FA06F6B14341F053
:102E2000706122B1460D360103FA06F63143144EA5
:102E30007160F0BD30B500228B071C0F0F2303FA21
:102E400004F20F4B08338C1053F8243093430C4C8E
:102E500008348D1044F8253023468C1053F8243064
:102E60008C07240F00FA04F42343054C08348D101A
:102E700044F8253030BD00000014014000F8FEBFCA
:102E8000000001400000204210B50446BD48201853
:102E90000FD0B0F5806F16D0B0F5784F1DD101215D
:102EA000080300F019FD00214FF4805000F014FDDC
:102EB00014E00121880300F01CFD00214FF4804044
:102EC00000F017FD0AE00121C80300F012FD002107
:102ED0004FF4004000F00DFD00E000BF00BF10BD4A
:102EE00010B50022028802F441520B884C8823431B
:102EF0008C882343CC8823430C8923434C89234368
:102F00008C892343CC8923431A430280838B4FF25D
:102F1000FF74234083830B8A038210BD2DE9F047A1
:102F200086B005460C464FF0000902274FF0000816
:102F30004FF0010A0026A88B4FF240010840A883F9
:102F400002202884B5F81C902089022801D100BFF6
:102F500031E0A08810B94FF0010A01E04FF0020AF9
:102F600001A800F032FCE088B0F5007F0AD101989A
:102F700000EB8000400021890902B0FBF1F0401D08
:102F800086B20BE04FEA4A1021894843019901EBD0
:102F900081014900B1FBF0F0401D86B20A20B6FB6A
:102FA000F0F606F00108A6EB0800C0F34F074FF655
:102FB000FF7000EA0828022F01DBFF2F02DD022745
:102FC0004FF0000847EA0800E18808432884208879
:102FD00040F4006061880843A18808436189084380
:102FE00040EA0909A5F81C9006B0BDE8F087002169
:102FF000018041808180C180018141818181C181C5
:103000000721018270470021018041808180C180B9
:103010000221018100214181704721B1028842F0E3
:103020004002028004E002884FF6BF731A4002801B
:10303000704721B1828B42F48062828304E0828BEC
:103040004FF6FF331A408283704730B500240023C7
:103050000C110125A540ABB21AB185881D438580AE
:1030600002E085889D43858030BD1AB183880B437B
:10307000838002E083888B4383807047818170471F
:10308000014688897047A1F57E42FF3A04D0028844
:1030900042F48072028004E002884FF6FF631A4017
:1030A0000280704721B1828842F00402828004E0ED
:1030B00082884FF6FB731A408280704702884FF275
:1030C000FF731A40028002880A4302807047018819
:1030D00041F480510180704721B1028842F40052CE
:1030E000028004E002884DF6FF731A4002807047A8
:1030F00002460020012901D0108B00E0908A704721
:103100000146088A7047B1F5804F04D1028842F425
:103110008042028004E002884BF6FF731A4002806E
:1031200070470246002013890B4201D0012000E0C5
:1031300000207047CA4302817047F0B50246002064
:1031400000240023002501F00F070126BE40B4B281
:103150000B1101269E40B3B2968806EA0305168934
:10316000264202D00DB1012000E00020F0BD10B5D4
:10317000002201F00F040123A3409AB2D34303813C
:1031800010BD000000C8FFBF10B50446D749601A43
:103190008C422BD006DCD648201813D0B0F5806FB7
:1031A00038D119E0B0F5806F2AD0B0F56C4F31D12D
:1031B0000121880300F090FB00214FF4804000F0D3
:1031C0008BFB28E00121480400F093FB00214FF421
:1031D000003000F08EFB1EE00121880400F089FB26
:1031E00000214FF4802000F084FB14E00121C8048A
:1031F00000F07FFB00214FF4002000F07AFB0AE092
:103200000121080500F075FB00214FF4801000F04B
:1032100070FB00E000BF00BF10BD2DE9F04786B095
:1032200005460E460024A24600BF00BF00272F46D9
:103230002C8A4CF6FF700440F08804432C82AC8941
:103240004EF6F3100440B088318908437189084371
:103250000443AC81AC8A4FF6FF400440B08904437C
:10326000AC8201A800F0B1FAA248874202D1DDF891
:1032700010A001E0DDF80CA00AEBCA0000EB0A1078
:1032800031688900B0FBF1F86420B8FBF0F004016C
:103290002009642101FB1089322000EB0910B0FBEA
:1032A000F1F000F00F0004432C8106B0BDE8F08778
:1032B0004FF41651016000218180C18001810C21F1
:1032C000418100218181704710B502460020108A9B
:1032D0004FF2FF0318400B884C8823438C8823430C
:1032E000CC8823431843108210BD00210180418007
:1032F0008180C180704721B1828942F4005282816D
:1033000004E082894DF6FF731A4082817047F0B560
:10331000034600240026002500201846C1F342146D
:1033200001F01F06012707FA06F5012C01D10C3028
:1033300004E0022C01D1103000E014301AB107680B
:103340002F43076002E00768AF430760F0BD1AB182
:10335000838A0B43838202E0838A8B438382704794
:10336000028A4FF6F0731A400282028A0A430282EE
:10337000704782894FF2FF731A40828182890A4323
:103380008281704721B1828942F00202828104E089
:1033900082894FF6FD731A4082817047028A4FF688
:1033A000DF731A400282028A0A430282704721B107
:1033B000028A42F48042028204E0028A4BF6FF73E2
:1033C0001A4002827047C1F30802828070470146AA
:1033D0008888C0F308007047818941F0010181812C
:1033E0007047028BD2B20283028B42EA012202832F
:1033F0007047028B02F47F420283028B0A430283EE
:10340000704721B1828A42F02002828204E0828ADF
:103410004FF6DF731A408282704721B1828A42F0F0
:103420001002828204E0828A4FF6EF731A40828291
:10343000704721B1828A42F00802828204E0828AC7
:103440004FF6F7731A4082827047828A4FF6FB73F9
:103450001A408282828A0A438282704721B1828A1C
:1034600042F00202828204E0828A4FF6FD731A4023
:10347000828270470246002013880B4201D001204F
:1034800000E000207047CA430280704770B50246D2
:103490000B460024002100250020C3F3421503F051
:1034A0001F01012606FA01F1012D02D19689314052
:1034B00006E0022D02D1168A314001E0968A3140A1
:1034C0001C12012606FA04F41688344011B10CB11E
:1034D000012000E0002070BD10B5002200230A1278
:1034E00001249440A3B2DC43048010BD004C004092
:1034F00000BCFFBF0038014031490143314A11602F
:10350000704770B5002100230F22C4780CB32D4CF6
:10351000246804F4E064C4F5E064210AC1F1040302
:10352000CA40447804FA03F1847814402143090125
:10353000254C0678A155047804F01F050124AC4001
:1035400005786D114FF0E02606EB8505C5F80041C2
:1035500009E0047804F01F050124AC401B4D0678F7
:10356000761145F8264070BD194A0A400243154BB2
:103570001B1F1A60704739B1124A121D12680243AC
:10358000104B1B1D1A6006E00E4A121D1268824382
:103590000C4B1B1D1A607047042808D14FF0E02126
:1035A000096941F004014FF0E022116107E04FF09A
:1035B000E021096921F004014FF0E0221161704718
:1035C0000000FA050CED00E000E400E080E100E01E
:1035D00080FFFF1FDC48006840F00100DA49086006
:1035E00008464068D9490840D749486008460068FD
:1035F000D7490840D44908600846006820F4802074
:1036000008600846406820F4FE004860002088609A
:103610007047CD49096821F48031CB4A11601146C9
:10362000096821F480211160B0F5803F03D0B0F526
:10363000802F0ED106E0C449096841F48031C24AA6
:10364000116007E0C049096841F4A021BE4A116039
:1036500000E000BF00BF704710B501460022002304
:1036600000204A11012A02D1B74C236806E0022A41
:1036700002D1B54C236A01E0B34C636A01F01F022A
:10368000012494401C4201D0012000E0002010BD24
:1036900038B5002000900024002500BF3120FFF73E
:1036A000DBFF05460098401C00901DB90098B0F55E
:1036B000A06FF3D13120FFF7CFFF08B1012400E064
:1036C0000024204638BD014600209F4A106820F0A3
:1036D000F80040EAC100106070479E4908607047DA
:1036E00002460020984B586820F47C1042EA0103FF
:1036F0001843954B586070479649086670470146D5
:103700000020914A506820F0030008435060704741
:103710008D48406800F00C007047014600208A4A3E
:10372000506820F0F00008435060704701460020C8
:10373000854A506820F4E0600843506070470146B5
:103740000020814A506820F4605040EAC100506077
:10375000704729B17C4A527A02437B4B5A7204E08B
:10376000794A527A8243784B5A7270477A49086094
:10377000704701460020744A506820F440400843D6
:10378000506070470021754A11706F4A82F820100E
:10379000012802D0042808D103E001216F4A1170EA
:1037A00004E005216D4A117000E000BF00BF7047C2
:1037B0006B49086070476449096A0143624A1162B3
:1037C0007047674944390860704730B500210022CE
:1037D000002400235C4D6D6805F00C0121B1042923
:1037E00005D0082923D105E05E4D056022E05D4D3E
:1037F00005601FE0544D6D6805F47012022505EB5D
:103800009242514D6D6805F480341CB9564D5543B4
:1038100005600BE04C4D6D6815F4003F03D0524D30
:103820005543056002E04F4D5543056002E04D4DA4
:10383000056000BF00BF444D6D6805F0F001090947
:103840004A4D6B5C0568DD4045603F4D6D6805F491
:10385000E061090A454D6B5C4568DD4085603A4D85
:103860006D6805F46051C90A404D6B5C4568DD40E8
:10387000C560354D6D6805F44041890B3C4D6B5C6E
:10388000C568B5FBF3F5056130BD29B12E4A526913
:1038900002432D4B5A6104E02B4A526982432A4B62
:1038A0005A61704729B1284A92690243264B9A61AE
:1038B00004E0254A92698243234B9A61704729B1FB
:1038C000214AD2690243204BDA6104E01E4AD269E0
:1038D00082431D4BDA61704729B11B4AD26802430B
:1038E000194BDA6004E0184AD2688243164BDA605A
:1038F000704729B1144A12690243134B1A6104E05C
:10390000114A12698243104B1A61704714494039B9
:10391000086070470F49C86470470B49C871704709
:103920000948406A40F08070074948627047014684
:103930000020054A92680A4201D0012000E00020E0
:103940007047014988727047001002400000FFF87C
:10395000FFFFF6FE00004242D80042422010024023
:103960008004424200127A0000093D00DE0100207E
:10397000EE010020002046490860091D0860091D6D
:103980000860091D086043484149143108607047C8
:10399000817900293ED03E490968026891433C4A3A
:1039A0001160111D096802689143394A121D1160A6
:1039B0000179121F8958026811430279344BD150A2
:1039C00033490831096802689143314A083211606D
:1039D000111D0968026891432D4A0C32116041792A
:1039E00010290ED1111F096802681143284A0832B4
:1039F0001160111D096802681143254A0C321160DB
:103A000010E04179224A8958026811434279204BDB
:103A1000D15007E001791E4A895802689143027922
:103A20001B4BD15070470021016001710C21417185
:103A30000021817170471649103109680143144A09
:103A400010321160704701460020114A143212688A
:103A50000A4201D0012000E0002070470C491431D7
:103A600008607047014600200022094B1B6803EAEA
:103A70000102074B14331B680B4202D00AB101202C
:103A800000E00020704702491431086070470000D0
:103A900000040140FFFF070010B50446F749601A13
:103AA0008C4245D00CDCB4F1804F1DD0F448201876
:103AB00023D0B0F5806F29D0B0F5006F54D12EE03F
:103AC000B0F5806F3DD0B0F58E3F03D0B0F5923F9A
:103AD0004AD13FE00121C802FFF7FEFE00214FF46A
:103AE0000060FFF7F9FE40E001210846FFF701FF03
:103AF00000210120FFF7FDFE37E001210220FFF742
:103B0000F8FE00210220FFF7F4FE2EE00121042040
:103B1000FFF7EFFE00210420FFF7EBFE25E0012177
:103B20000820FFF7E6FE00210820FFF7E2FE1CE078
:103B300001211020FFF7DDFE00211020FFF7D9FE44
:103B400013E001212020FFF7D4FE00212020FFF701
:103B5000D0FE0AE001214803FFF7BEFE00214FF42A
:103B60000050FFF7B9FE00E000BF00BF10BD0288A3
:103B700002F08F020280CA884B881A4303881A43D6
:103B800002808A8882850A880285BE4A904202D0D5
:103B9000BD4A904201D10A7A028601228282704790
:103BA00070B5002400220023058C4FF6FE763540C8
:103BB0000584028C8388048B4FF68F752C400D880A
:103BC0002C43751E2A400D892A434D882A43CD88EF
:103BD0008586AC4DA84202D0AB4DA84213D14FF61A
:103BE000F7752A404D892A434FF6FB752A408D8888
:103BF0002A4347F6FF652B4047F6FF552B408D893A
:103C00002B43CD892B4383800483028470BD70B520
:103C1000002400220023058C4FF6EF763540058402
:103C2000028C8388048B48F6FF752C400D884FF674
:103C3000FF7606EA05252C434FF6DF752A400D89ED
:103C400006EA05152A434D8806EA05152A43CD885C
:103C500005878C4DA84202D08B4DA8421DD14FF64E
:103C60007F752A404D894FF6FF7606EA05152A43EF
:103C70004FF6BF752A408D8806EA05152A4347F698
:103C8000FF352B4047F2FF752B408D8906EA8505ED
:103C90002B43CD8906EA85052B4383800483028468
:103CA00070BD70B5002400220023058C4FF6FF661E
:103CB00035400584028C8388848B4FF68F752C40A9
:103CC0000D882C434FF6FF552A400D894FF6FF769D
:103CD00006EA05252A434D8806EA05252A43CD88AC
:103CE0008587684DA84202D0674DA8421DD14FF28A
:103CF000FF752A404D894FF6FF7606EA05252A43CF
:103D00004FF6FF352A408D8806EA05252A4346F6F8
:103D1000FF752B4045F6FF752B408D8906EA05158A
:103D20002B43CD8906EA05152B43838084830284C7
:103D300070BD70B5002400220023058C4EF6FF767E
:103D400035400584028C8388848B48F6FF752C40AF
:103D50000D884FF6FF7606EA05252C434DF6FF75D4
:103D60002A400D8906EA05352A434D8806EA0535BD
:103D70002A43CD88A0F84050424DA84202D0424D7F
:103D8000A84207D1C3F30D038D894FF6FF7606EAEB
:103D900085152B4383808483028470BD828B4FF210
:103DA000FF331A408283828B4FF6FF7303EA0123AD
:103DB0001A4382837047F0B50C4615460021002255
:103DC0000026078C4EF6FF7C07EA0C070784818BE0
:103DD000028C4FF6FF7707EA043640F6FF4739407A
:103DE0004FF6FF7707EA05274FF6FF7C0CEA033C06
:103DF00047EA0C0739434DF6FF773A4046F48057BF
:103E00003A4381830284F0BD828B4FF6F3731A40EC
:103E10008283828B0A4382837047F0B50C46154635
:103E2000002100220026078C4FF6FF6C07EA0C07E2
:103E30000784818B028C4FF6FF7707EA04264FF642
:103E40000C7739404FF6FF7707EA03172F433943C2
:103E50004FF6FF573A4046F480773A438183028415
:103E6000F0BD028B4FF2FF331A400283028B4FF6F4
:103E7000FF7303EA01231A430283704700100040D6
:103E800000FCFFBF002C014000340140F0B50C469F
:103E90001546002100220026078C4FF6EF7C07EA2A
:103EA0000C070784018B028C4FF6FF7707EA041694
:103EB00040F6FF4739404FF6FF7707EA03373943AB
:103EC0004FF6FF7707EA052739434FF6DF773A4089
:103ED00046F010073A4301830284F0BD028B4FF68F
:103EE000F3731A400283028B0A4302837047F0B5D2
:103EF0000C46154600210022068C4FF6FE773E4008
:103F00000684018B028C4FF60C7631407E1C06EA4B
:103F100003162E4331437E1E324044F001063243E5
:103F200001830284F0BD70B505460C46208850B967
:103F30002389A28861882846FFF7D9FFE1882846AF
:103F4000FFF7CCFF25E0208804280AD12389A28826
:103F500061882846FFF79AFFE1882846FFF781FF2E
:103F600017E0208808280AD12389A288618828467A
:103F7000FFF753FFE1882846FFF746FF09E0238952
:103F8000A28861882846FFF716FFE1882846FFF7D8
:103F900005FF70BD2DE9F04105460C4600260127BE
:103FA000608808B9022600E00026A088012801D117
:103FB000022700E001272088A0B92389A288618810
:103FC0002846FFF794FFE1882846FFF787FF2389FB
:103FD0003A4631462846FFF759FFE1882846FFF761
:103FE00040FF13E02389A28861882846FFF74EFF2F
:103FF000E1882846FFF735FF23893A4631462846AF
:10400000FFF775FFE1882846FFF768FFBDE8F081FC
:104010000A884B881A438B881A43CB881A430B892A
:104020001A434B891A438B891A43A0F844207047DE
:104030004FF6FF71818000210180C18041800172B3
:1040400070470021018041808180C18001814181D0
:104050008181C181704700210180418001218180DF
:104060000021C18001817047002101804180818051
:10407000C180018141818181704721B1028842F074
:104080000102028004E0028840F2FE331A400280FE
:10409000704731B1B0F8442042F40042A0F8442007
:1040A00005E0B0F84420C2F30E02A0F844207047A7
:1040B0001AB183890B43838102E083898B43838117
:1040C00070478182704741EA0203A0F84830704788
:1040D0001AB183890B43838102E083898B438381F7
:1040E000704701894FF6F8721140018170470A4606
:1040F000002101894FF68F731940114301817047E8
:1041000030B504460D4629462046FFF7F0FF2089CA
:1041100040F00700208130BD2DE9F04104460D46F6
:1041200016461F46602D06D13B46012231462046E9
:10413000FFF7ACFE05E03B46012231462046FFF783
:10414000D6FE29462046FFF7D2FF208940F007001F
:104150002081BDE8F08170B50C4600210189C9B20B
:1041600044EA02054FF6FF7606EA03263543294363
:10417000018170BD2DE9F04105460E46174698466F
:10418000002443463A4631462846FFF7E4FF2C898F
:104190004FF6F870044044F007044FF68F70044067
:1041A00044F070042C81BDE8F081F0B504460D4662
:1041B00016461F463B46324629462046FFF7CBFFB0
:1041C000208940F480402081F0BD018582827047C3
:1041D0000A460021018840F28F33194011430180C3
:1041E0007047F0B50C4615461E46002100220023FC
:1041F0000189028B038C4FF6F877394021434FF643
:10420000FC473A4040F201173A434FF6DD773B4016
:104210004FF6FF7707EA06172F433B4301810283DE
:104220000384F0BD0A460021018B4FF68F731940BD
:104230001143018370470A460021018B48F6FF7342
:1042400019404FF6FF7303EA0223194301837047B5
:104250000A460021818B4FF68F73194011438183E9
:1042600070470A460021818B48F6FF7319404FF6CC
:10427000FF7303EA022319438183704721B1028847
:1042800042F08002028004E0028840F27F331A404C
:104290000280704721B1828842F00402828004E0EB
:1042A00082884FF6FB731A408280704721B1828862
:1042B00042F00802828004E082884FF6F7731A40C9
:1042C0008280704721B1828842F00102828004E03E
:1042D00082884FF6FE731A40828070470A4600219A
:1042E000018B4FF6F77319401143018370470A465B
:1042F0000021018B4FF2FF7319404FF6FF7303EA61
:1043000002231943018370470A460021818B4FF62F
:10431000F77319401143818370470A460021818B4E
:104320004FF2FF7319404FF6FF7303EA022319435C
:10433000818370470A460021018B4FF6FB731940B9
:104340001143018370470A460021018B4FF6FF336A
:1043500019404FF6FF7303EA0223194301837047A4
:104360000A460021818B4FF6FB731940114381836C
:1043700070470A460021818B4FF6FF3319404FF6F4
:10438000FF7303EA02231943818370470A46002121
:10439000018B4FF67F7319401143018370470A4622
:1043A0000021018BC1F30E014FF6FF7303EA0223D4
:1043B0001943018370470A460021818B4FF67F73B2
:1043C00019401143818370470A460021818BC1F354
:1043D0000E014FF6FF7303EA0223194381837047EE
:1043E0000A460021018C4FF6FD73194011430184E8
:1043F00070470A460021018C4FF6F77319401143AC
:10440000018470470A460021018C4FF6DF73194082
:104410004FF6FF7303EA02131943018470470A46FB
:104420000021018C4FF67F7319404FF6FF7303EAAA
:1044300002131943018470470A460021018C4FF68C
:10444000FF5319404FF6FF7303EA02231943018417
:1044500070470A460021018C4FF2FF7319404FF656
:10446000FF7303EA02231943018470470A460021BF
:10447000018C4DF6FF7319404FF6FF7303EA0233C8
:1044800019430184704710B5038C01248C40A34369
:104490000384038C02FA01F4A4B22343038410BD05
:1044A00010B5038C04248C40A3430384038C02FACC
:1044B00001F4A4B22343038410BD30B5038C01245E
:1044C0008C40A343038409B1082918D100F11803D3
:1044D00003EB61031B684FF68F74234000F118044F
:1044E00004EB6104236000F1180303EB61031B6814
:1044F000134300F1180404EB610423601FE00B1F59
:10450000C3F34E0400F118031B5948F6FF7423400F
:104510000C1FC4F34E0500F1180463510B1FC3F3C5
:104520004E0400F118031B594FF6FF7404EA0224ED
:1045300023430C1FC4F34E0500F11804635130BD32
:1045400021B1028842F00202028004E0028840F2B7
:10455000FD331A400280704721B1028842F0040204
:10456000028004E0028840F2FB331A400280704768
:1045700021B1828842F08002828004E082884FF676
:104580007F731A4082807047028840F2F7331A40E6
:10459000028002880A430280704782884FF68F7338
:1045A0001A40828082880A438280704702894FF6CF
:1045B000F8731A40028102890A4302817047028916
:1045C0004FF67F731A40028102890A4302817047C5
:1045D0008184704781857047818670470187704765
:1045E00081877047A0F8401070470288D2B20280DD
:1045F00002880A43028070470146888E7047014650
:10460000088F70470146888F70470146B1F8400017
:1046100070470146888C70470146088D70470246F6
:104620000020138A0B4201D0012000E000207047D7
:10463000CA430282704730B502460020002300249E
:10464000158A05EA0103958905EA010413B10CB145
:10465000012000E0002030BDCA4302827047000004
:1046600010B504462CB90120FE49096808820020D3
:1046700010BDFD49096808688047FA4800680A309B
:10468000F6E710B5F7480068C078F84949788842DD
:1046900013DCF4480068807878B9F24800688088B4
:1046A00058B9F0480068C078EE4909688872EE4948
:1046B000096848688047002010BD0220FCE710B55B
:1046C00004462CB90120E74909680882002010BD82
:1046D000E549096888688047E24800680C30F6E7D9
:1046E00010B5E04B1B68D978DE4B1B685879E04B5E
:1046F0001B689A6990470446DA480068807AE8B1F6
:104700003CB9D8480068007918B9D6480068807864
:1047100008B1022010BD8CB9D3490968C868804728
:10472000D04800684079CF490968C872CD48006810
:10473000C078CC49096808730020EBE70220E9E75C
:1047400010B504462CB90220C64909680882002029
:1047500010BD0020C7490880C2480068007810F0EA
:104760007F0F23D1BF490968487A10F0200F06D087
:10477000C049097841F00201BE4A117005E0BD4907
:10478000097801F0FD01BB4A117010F0400F06D00E
:10479000B849097841F00101B64A117005E0B54900
:1047A000097801F0FE01B34A117036E0AD480068A7
:1047B000007800F07F00012801D1AE48C8E7A94881
:1047C0000068007800F07F00022824D1A54A126812
:1047D000517901F00F0011F0800F0DD0A64A52F868
:1047E000202002F03002102A14D1A24A127842F09E
:1047F0000102A04B1A700DE09F4A52F8202002F4EB
:104800004052B2F5805F05D19A4A127842F0010217
:10481000984B1A7001E000209AE7934909680869EB
:104820008047944894E72DE9F0478E480068007867
:1048300000F07F08B8F1000F0AD18A480068407A7A
:1048400000F0DF008749096848720020BDE8F08762
:10485000B8F1020F7ED183480068408818B98148BA
:104860000068007908B10220F0E7DFF800927D4887
:104870000068477927F080052C467A48006840791F
:1048800010F0800F05D07C4850F8240000F030066E
:1048900004E0794850F8240000F4405699F80000EC
:1048A000A84204D91EB16F480068807A08B9022076
:1048B000CCE717F0800F0ED06F4850F8240000F0BE
:1048C000300010283FD1E0B200F095FFE0B2302177
:1048D00000F03DFE37E0684850F8240000F44050F6
:1048E000B0F5805F2FD1C4B9644A92F82C10E0B2C1
:1048F00001F008F8604951F824104BF68F7201EA74
:10490000020080F4805080F4005040F4004141F0F7
:104910008001594A42F8241015E0E0B200F055FF3A
:10492000554951F824104BF68F7201EA020080F4C9
:10493000805080F4005040F4004141F080014E4A24
:1049400042F8241000BF48490968486980470020A0
:104950007CE7FFE700BF022078E72DE9F0414148FE
:104960000068467926F080073C463E48006840795A
:1049700010F0800F05D0404850F8240000F03005BA
:1049800004E03D4850F8240000F4405537480078D2
:10499000A04208D933480068408820B91DB1314889
:1049A0000068807A10B90220BDE8F08116F0800F0F
:1049B00010D0314951F8241048F6BF7201EA0200C4
:1049C00080F0100040F4004141F080012A4A42F892
:1049D000241010E0284951F824104BF68F7201EA98
:1049E000020080F4805040F4004141F08001224AEE
:1049F00042F8241000BF1C490968886980470020DC
:104A0000D2E710B517480068407A40F020001549F9
:104A10000968487214490968C8698047002010BDB8
:104A200010B502460F480068438A32B98888C01A18
:104A30000C4C24682082002010BD08681844FBE755
:104A40002DE9F0410748006800F110042688A068AD
:104A500038B336B3A588B54200D93546A8B2A168A7
:104A600088470DE0FC0100200802002048010020DA
:104A700000020020F4010020005C00404C010020F6
:104A800007462088401B20806088284460800020E2
:104A900000F00AFF8046AAB24146384600F0F8FC12
:104AA00000BF208850B14FF44050FA4908800021DF
:104AB000084600F005FF3020F74908802088A188CB
:104AC000884204DB0320F5490968087218E0208851
:104AD000002804DD0520F1490968087210E02088EB
:104AE00070B90620ED49096808720021EC48006899
:104AF00080B2801CEB4A42F810103020E649088052
:104B0000BDE8F0812DE9F047E448006800F11005A8
:104B10002E88E2480068077AD6B9042F18D1E248F7
:104B2000007801280FD10021DD48006880B2801C88
:104B3000DC4A42F810103020D749088000BF00201E
:104B4000D949087003E007271020D349088027E0DF
:104B5000AC88A64201D8042000E002200746B442F7
:104B600000D93446A0B2A96888478046002000F0EA
:104B70008BFE8146A2B24946404600F06FFCA1B2CE
:104B8000002000F09DFE2888001B288068882044B3
:104B900068803020C04908800002BE49088000BFFC
:104BA000BE4909680F72BDE8F08770B50226BB48A0
:104BB00000684478B9480068007810F07F0F44D14D
:104BC000092C03D1FFF75DFD06465FE0052C14D1EB
:104BD000B2480068C0787F280BDCB0480068807855
:104BE00038B9AE480068808818B9AC480068807A47
:104BF00008B1082565E0002648E0032C0ED1A7483F
:104C00000068C078012807D1A4480068808818B9D6
:104C1000FFF7F7FE064639E0022637E0012C35D1D2
:104C20009E480068C07801280DD19C4800688088A3
:104C300048B99A480068407A10F0200F03D0FFF777
:104C4000F2FD064622E0022620E094480068007843
:104C500000F07F00012805D10B2C17D1FFF740FD94
:104C6000064613E08D480068007800F07F000228B7
:104C70000BD1012C03D1FFF7D6FD064606E0032C2D
:104C800004D1FFF76AFE064600E002264EB1E0B20C
:104C9000864A1268516988470646032E01D10925C4
:104CA0000FE00EB108250CE0062500217C480068C5
:104CB00080B2801C7B4A42F8101030207649088070
:104CC00000BF764909680D7270BD2DE9F84F734831
:104CD000006845780027BA46062D1AD16F4800684B
:104CE000007810F07F0F13D16C490968887801288B
:104CF00003D16E490968CF690AE0022803D16B49E4
:104D000009680F6A04E0032802D1684909684F6AFC
:104D100097E0002D65D1614800684088002860D187
:104D20005E480068C08802285BD15C480068007952
:104D3000002856D159480068007810F07F0F06D13E
:104D400056480068808810B9AFF20B6779E0534885
:104D50000068007800F07F00012811D14F490968F0
:104D60004879524909688A6900219047002868D12A
:104D70004A480068807A002863D0AFF23B6760E061
:104D800046480068007800F07F00022859D1434867
:104D90000068407900F00F0640480068407900F054
:104DA00070093E480068407910F0800F06D03C48FA
:104DB000503850F8260000F0300805E038485038E8
:104DC00050F8260000F4405839480078B04238D9ED
:104DD000B9F1000F35D1B8F1000F32D0AFF29F67B3
:104DE0002FE0082D08D12D480068007810F07F0FC3
:104DF00027D1AFF2937724E00A2D22D1274800680B
:104E0000007800F07F0001281BD124480068807AD8
:104E1000B8B122480068408898B9204800680079F5
:104E200078B91E480068C08801280AD11B49096862
:104E300048791E4909688A690021904708B9AFF28C
:104E4000817757B115480068A0F812A01348006890
:104E500087610020B84700240FE0104A126850789C
:104E6000124A1268116988470446032C05D10920AB
:104E70000A4909680872BDE8F88F08480068008A86
:104E8000A0F57F41FF3915D109200449096808724E
:104E9000F1E700000C0200200E020020FC010020BF
:104EA000505C004000600040F20100200002002041
:104EB00048010020022C03D09D480068008A20B9D8
:104EC00008209B4909680872D5E79948006800786E
:104ED00010F0800F3CD096480068C088009094483D
:104EE0000068008A0099884204D9914900980968AD
:104EF000088223E08E480068008A8D490968C988C5
:104F000088421BDA8A480068008A8A49096891F851
:104F10002C10884203DA0020874908700EE084488C
:104F20000068008A8349096891F82C1090FBF1F21F
:104F300001FB120010B901207F4908707D4800680C
:104F400090F82C107A4800688182FFF7DBFD06E0BC
:104F5000032077490968087200037849088000BF78
:104F600089E710B5764890F82C10002000F0CAFCB4
:104F70006F480068007A082805D140026F49088010
:104F80001020704908806A480068007A092801D119
:104F9000012010BD0020FCE738B501246A480068F4
:104FA00080B2001D694931F8100080B201EB400069
:104FB00000905F480068007A092832D00098007895
:104FC0005B49096808700098401C009000980078C0
:104FD0005749096848700098401C0090009800EB01
:104FE00044000090009931F8020B009100F028FE77
:104FF0004F4909684880009800EB440000900099F0
:1050000031F8020B009100F01BFE494909688880C5
:10501000009800EB4400009000980088444909681B
:10502000C880012042490968087241480068C08868
:1050300010B9FFF7BAFD01E0FFF747FEFFF791FF58
:1050400038BD30B50146424B1A78002012E0C3B299
:105050003D4C503C54F8233048F68F74234048F2BE
:1050600080042343C4B22343C4B2374D503D45F8B6
:105070002430401C9042EAD341F08003324C241F7C
:10508000236030BD10B52A480068047A022C01D094
:10509000042C05D1FFF736FD25480068047A1CE092
:1050A000062C19D122480068407805280ED12048E6
:1050B0000068007810F07F0F08D11D490968C87892
:1050C000FFF7BFFF23490968086A80471949096843
:1050D00088688047082400E00824154909680C7294
:1050E000FFF73FFF10BD10B511480068047A022C8D
:1050F00001D0042C01D1082412E0032C01D0052C8E
:1051000005D1FFF79DFC0A480068047A08E0072CE7
:1051100005D108490968C8688047082400E00824C8
:10512000034909680C72FFF71CFF10BD70470000AF
:10513000FC01002000020020F20100200C020020EF
:105140004C0100200E020020505C00400060004036
:10515000480100200802002008B50020009015E159
:10516000B748008800F00F00B6490870084600787C
:1051700000287DD1B4480068B449088008460088FA
:1051800000F03000B2490880B048008800F4405078
:10519000AE490880AC4909684BF6BF7201EA0200CB
:1051A00080F4005080F0200040F4004141F0800184
:1051B000A54A1160A248008810F0100F32D11046A5
:1051C000006848F60F71084011460860FFF75AFF63
:1051D0009D4909684BF6BF7201EA02009B490988A4
:1051E00011F4805F01D080F480509849098811F44F
:1051F000005F01D080F400509549098811F0100F2C
:1052000001D080F010009249098811F0200F01D0E0
:1052100080F0200081B241F4004141F080018A4ACF
:10522000116008BD8848006880B20090BDF8000099
:1052300010F4006F36D084480068C0F30E0048F6C2
:105240008F71084080490860FFF7A6FE7E49096813
:105250004BF6BF7201EA02007C49098811F4805FB5
:1052600001D080F480507949098811F4005F00E092
:1052700052E001D080F400507549098811F0100FF8
:1052800001D080F010007249098811F0200F01D080
:1052900080F0200081B241F4004141F080016A4A6F
:1052A0001160BEE7BDF8000010F4004F6ED06648F4
:1052B0000068C0F30E0048F68F710840624908602C
:1052C000FFF711FF604909684BF6BF7201EA02005F
:1052D0005E49098811F4805F01D080F480505B49F9
:1052E000098811F4005F01D080F400505849098802
:1052F00011F0100F01D080F010005549098811F00D
:10530000200F01D080F0200081B241F4004141F033
:1053100080014D4A116084E74A4800784A4951F8B3
:10532000200080B20090BDF8000010F4004F14D0AF
:105330004448007851F82000C0F30E0048F68F7101
:10534000084040490978404A42F821003D4909781F
:10535000491E404A52F821008047BDF8000010F075
:10536000800F13D037480078374951F8200048F6AD
:105370000F71084033490978334A42F82100314916
:105380000978491E344A52F8210080472E4844309B
:10539000006880B22A49088010F4004F7FF4E0AE24
:1053A00000BF3EE710B5002440E047F6FF702649F5
:1053B000443108602248008800F00F00214908703D
:1053C00008460078204951F8200084B214F4004FB8
:1053D00015D01C48007851F82000C0F30E0048F6A4
:1053E0008F71084017490978174A42F8210015497A
:1053F0000978491E174A52F82100804716E014F038
:10540000800F13D00F4800780F4951F8200048F65C
:105410000F7108400B4909780B4A42F821000949ED
:105420000978491E0C4A52F821008047064844304A
:10543000006880B20249088010F4004FB5D110BD59
:1054400038010020F8010020005C00400C02002020
:105450000E0200201C01002000010020F0B51446BF
:1054600004F1010C4FEA6C07DFF848C00CEB410374
:105470003D460AE00678401C90F800C046EA0C223F
:1054800023F8022B9B1C401C6D1E002DF2D1F0BD99
:10549000F0B5561C7510074E06EB41042B4605E08F
:1054A00034F8047B20F8017B401C5B1E002BF7D1F5
:1054B000F0BD000000600040F94908607047F848FE
:1054C000006880B27047F649091D08607047F448CB
:1054D000001D006880B27047F1480830006880B253
:1054E0007047EF490C3108607047ED480C30006898
:1054F00080B270474FF6F8710140E94A10321160EE
:105500007047E7481030006880B27047E44A403A7C
:1055100042F8201070470146E148403850F8210019
:1055200080B27047DE4A403A52F8202048F68F1386
:105530001A400A43DA4B403B43F8202070470146AB
:10554000D748403850F8210000F4C060704710B5CB
:10555000D34B403B53F8203048F6BF7403EA0402B3
:1055600011F0100F01D082F0100211F0200F01D0C5
:1055700082F0200242F4004343F08003C84C403CD8
:1055800044F8203010BD10B5C54B403B53F82030D7
:105590004BF68F7403EA040211F4805F01D082F4A9
:1055A000805211F4005F01D082F4005242F40043B3
:1055B00043F08003BA4C403C44F8203010BD10B595
:1055C00002460B461046FFF7A6FF0446012B06D104
:1055D00024F48050B249403941F8220007E0022B00
:1055E00005D124F01000AE49403941F8220010BD29
:1055F0000146AB48403850F8210000F030007047B9
:105600000146A748403850F8210000F44050704748
:10561000A34A403A52F8202048F6BF7302EA030139
:1056200081F0100181F0200141F4004242F080023B
:105630009B4B403B43F820207047994A403A52F830
:1056400020204BF68F7302EA030181F4805181F42C
:10565000005141F4004242F08002914B403B43F83C
:10566000202070478E49403951F8201041F4807154
:1056700048F68F72114048F280021143884A403A3E
:1056800042F8201070478649403951F8201048F6FA
:105690008F62114048F280021143814A403A42F839
:1056A000201070477E49403951F8201048F68F622B
:1056B000114048F280021143794A403A42F82010E2
:1056C00070477749403951F8201041F4807148F60D
:1056D0008F72114048F280021143714A403A42F8F9
:1056E000201070476E49403951F8201041F4807104
:1056F00048F68F72114048F280021143684A403ADE
:1057000042F8201070476649403951F8201048F699
:105710008F62114048F280021143614A403A42F8D8
:105720002010704701465E48403850F8210000F0D4
:105730003000102801D1012070470020FCE701460D
:105740005748403850F8210000F44050B0F5805FD1
:1057500001D1012070470020FCE75149403951F840
:105760002010C1F30E0148F68F7211404C4A403AA6
:1057700042F8201070474A49403951F8201048F645
:105780000F721140464A403A42F82010704744498F
:10579000403951F8201048F68F7211404CF28002C7
:1057A00011433F4A403A42F8201070473C49403983
:1057B00051F8201048F68F72114048F2C002114390
:1057C000374A403A42F8201070473549403951F87D
:1057D000201011F4804F0DD03149403951F820107C
:1057E00048F68F7211404CF2800211432C4A403A25
:1057F00042F8201070472A49403951F8201011F022
:10580000400F0DD02649403951F8201048F68F72CC
:10581000114048F2C0021143214A403A42F8201098
:1058200070471F4A403A52F8202048F68F731A40BA
:1058300048F280031A430A43194B403B43F82020A7
:10584000704701461648403850F8210000F00F001C
:10585000704710B54A105300114A1032126892B2C4
:1058600002EBC0020F4C44F8123010BD10B54A10C4
:1058700053000B4A1032126892B202EBC002121DA2
:10588000084C44F8123010BD01460548103000683D
:1058900080B200EBC100034A32F8100080B27047BA
:1058A000405C0040006000400146E848006880B26B
:1058B00000EBC100001DE64A32F8100080B27047CC
:1058C000E24A126892B202EBC002921CE04B43F82B
:1058D0001210704702463E290BDD481111F01F0FD0
:1058E00001D1431E98B24FF4004343EA8023136072
:1058F00007E0481011F0010F01D0431C98B2830259
:105900001360704710B50246D048006880B200EBC3
:10591000C200801DCE4C04EB40033E290BDD481134
:1059200011F01F0F01D1441EA0B24FF4004444EA0D
:1059300080241C6007E0481011F0010F01D0441CC6
:10594000A0B284021C6010BD0146C048006880B24D
:1059500000EBC100801CBE4A32F81000C0F3090001
:1059600070470146B948006880B200EBC100801D55
:10597000B74A32F81000C0F30900704730B54B1039
:105980005C00B24B1B689BB203EBC003B04D45F803
:10599000134053105C00AD4B1B689BB203EBC0037C
:1059A0001B1D45F8134030BD10B54A105300A74ADF
:1059B000126892B202EBC002A54C44F8123010BD3E
:1059C00010B54A105300A14A126892B202EBC0020D
:1059D000121D9F4C44F8123010BD01469B480068D0
:1059E00080B200EBC1009A4A32F8100080B27047D2
:1059F00001469648006880B200EBC100001D944A41
:105A000032F8100080B2704730B50B46012B1FD121
:105A10008E49096889B201EBC001891C8C4D05EBE8
:105A200041043E2A0BDD511112F01F0F01D14D1E12
:105A3000A9B24FF4004545EA8125256007E05110E1
:105A400012F0010F01D04D1CA9B28D0225600AE0B1
:105A5000022B08D17D49096889B201EBC001891C7C
:105A60007B4C44F81120012B1FD17849096889B279
:105A700001EBC001891D764D05EB41043E2A0BDD8B
:105A8000511112F01F0F01D14D1EA9B24FF4004564
:105A900045EA8125256007E0511012F0010F01D081
:105AA0004D1CA9B28D0225600AE0022B08D167497E
:105AB000096889B201EBC001891D654C44F81120C9
:105AC00030BD30B5034601291FD16048006880B25F
:105AD00000EBC300801C5E4D05EB40043E2A0BDD4D
